{
  "address": "0x38171E91547AE58Da7445d0a460B5F5503b9452f",
  "abi": [
    {
      "inputs": [
        {
          "internalType": "address",
          "name": "wklay9_",
          "type": "address"
        },
        {
          "internalType": "address",
          "name": "wklay10_",
          "type": "address"
        }
      ],
      "stateMutability": "nonpayable",
      "type": "constructor"
    },
    {
      "inputs": [
        {
          "internalType": "address",
          "name": "account",
          "type": "address"
        },
        {
          "internalType": "uint256",
          "name": "value",
          "type": "uint256"
        }
      ],
      "name": "wklay10ToWklay9",
      "outputs": [],
      "stateMutability": "payable",
      "type": "function"
    },
    {
      "inputs": [
        {
          "internalType": "address",
          "name": "account",
          "type": "address"
        },
        {
          "internalType": "uint256",
          "name": "value",
          "type": "uint256"
        }
      ],
      "name": "wklay9ToWklay10",
      "outputs": [],
      "stateMutability": "payable",
      "type": "function"
    },
    {
      "stateMutability": "payable",
      "type": "receive"
    }
  ],
  "transactionHash": "0xe7fbd0b119b01a7bb7f51756d59da1ead0e39e737bf50c78e0fae977bfb03a12",
  "args": [
    "0x60Cd78c3edE4d891455ceAeCfA97EECD819209cF",
    "0x69F2514132818B667caE825F067A807Af2F72fDE"
  ],
  "solcInputHash": "61183f0b73cbed17659aa81a96235799",
  "bytecode": "0x60c060405234801561001057600080fd5b506040516105ae3803806105ae8339818101604052604081101561003357600080fd5b5080516020909101516001600160601b0319606092831b8116608052911b1660a05260805160601c60a05160601c61051d6100916000398060af528061044152508061017d52806101fe52806102c052806103e0525061051d6000f3fe60806040526004361061002d5760003560e01c806354cdf55714610039578063705df7c81461007457610034565b3661003457005b600080fd5b6100726004803603604081101561004f57600080fd5b5073ffffffffffffffffffffffffffffffffffffffff81351690602001356100ad565b005b6100726004803603604081101561008a57600080fd5b5073ffffffffffffffffffffffffffffffffffffffff81351690602001356102be565b7f000000000000000000000000000000000000000000000000000000000000000073ffffffffffffffffffffffffffffffffffffffff16639555a9428330846040518463ffffffff1660e01b8152600401808473ffffffffffffffffffffffffffffffffffffffff1681526020018373ffffffffffffffffffffffffffffffffffffffff1681526020018281526020019350505050600060405180830381600087803b15801561015c57600080fd5b505af1158015610170573d6000803e3d6000fd5b50505050600034820190507f000000000000000000000000000000000000000000000000000000000000000073ffffffffffffffffffffffffffffffffffffffff1663d0e30db0826040518263ffffffff1660e01b81526004016000604051808303818588803b1580156101e357600080fd5b505af11580156101f7573d6000803e3d6000fd5b50505050507f000000000000000000000000000000000000000000000000000000000000000073ffffffffffffffffffffffffffffffffffffffff1663a9059cbb84836040518363ffffffff1660e01b8152600401808373ffffffffffffffffffffffffffffffffffffffff16815260200182815260200192505050602060405180830381600087803b15801561028d57600080fd5b505af11580156102a1573d6000803e3d6000fd5b505050506040513d60208110156102b757600080fd5b5050505050565b7f000000000000000000000000000000000000000000000000000000000000000073ffffffffffffffffffffffffffffffffffffffff166323b872dd8330846040518463ffffffff1660e01b8152600401808473ffffffffffffffffffffffffffffffffffffffff1681526020018373ffffffffffffffffffffffffffffffffffffffff1681526020018281526020019350505050602060405180830381600087803b15801561036d57600080fd5b505af1158015610381573d6000803e3d6000fd5b505050506040513d602081101561039757600080fd5b5050604080517f2e1a7d4d00000000000000000000000000000000000000000000000000000000815260048101839052905173ffffffffffffffffffffffffffffffffffffffff7f00000000000000000000000000000000000000000000000000000000000000001691632e1a7d4d91602480830192600092919082900301818387803b15801561042757600080fd5b505af115801561043b573d6000803e3d6000fd5b505050507f000000000000000000000000000000000000000000000000000000000000000073ffffffffffffffffffffffffffffffffffffffff1663b760faf9348301846040518363ffffffff1660e01b8152600401808273ffffffffffffffffffffffffffffffffffffffff1681526020019150506000604051808303818588803b1580156104ca57600080fd5b505af11580156104de573d6000803e3d6000fd5b5050505050505056fea264697066735822122085a3000a35399d988c087f56495bf03b6f093dab0cc67de37cb2ef2c26d06ffd64736f6c63430007060033",
  "devdoc": {
    "kind": "dev",
    "methods": {},
    "version": 1
  },
  "userdoc": {
    "kind": "user",
    "methods": {},
    "version": 1
  },
  "storageLayout": {
    "storage": [],
    "types": null
  }
}